{
  "_format": "hh-sol-artifact-1",
  "contractName": "Payment",
  "sourceName": "contracts/payment.sol",
  "abi": [
    {
      "inputs": [
        {
          "internalType": "address",
          "name": "_usdtTokenAddress",
          "type": "address"
        },
        {
          "internalType": "address payable",
          "name": "_marketplaceEOA",
          "type": "address"
        }
      ],
      "stateMutability": "nonpayable",
      "type": "constructor"
    },
    {
      "anonymous": false,
      "inputs": [
        {
          "indexed": true,
          "internalType": "address",
          "name": "buyer",
          "type": "address"
        },
        {
          "indexed": false,
          "internalType": "uint256",
          "name": "amount",
          "type": "uint256"
        },
        {
          "indexed": false,
          "internalType": "string",
          "name": "gameId",
          "type": "string"
        },
        {
          "indexed": false,
          "internalType": "uint256",
          "name": "timestamp",
          "type": "uint256"
        }
      ],
      "name": "PaymentMade",
      "type": "event"
    },
    {
      "inputs": [
        {
          "internalType": "uint256",
          "name": "_index",
          "type": "uint256"
        }
      ],
      "name": "getTransaction",
      "outputs": [
        {
          "internalType": "address",
          "name": "",
          "type": "address"
        },
        {
          "internalType": "uint256",
          "name": "",
          "type": "uint256"
        },
        {
          "internalType": "string",
          "name": "",
          "type": "string"
        },
        {
          "internalType": "uint256",
          "name": "",
          "type": "uint256"
        }
      ],
      "stateMutability": "view",
      "type": "function"
    },
    {
      "inputs": [],
      "name": "getTransactionCount",
      "outputs": [
        {
          "internalType": "uint256",
          "name": "",
          "type": "uint256"
        }
      ],
      "stateMutability": "view",
      "type": "function"
    },
    {
      "inputs": [],
      "name": "marketplaceEOA",
      "outputs": [
        {
          "internalType": "address payable",
          "name": "",
          "type": "address"
        }
      ],
      "stateMutability": "view",
      "type": "function"
    },
    {
      "inputs": [
        {
          "internalType": "string",
          "name": "_gameId",
          "type": "string"
        },
        {
          "internalType": "uint256",
          "name": "_amount",
          "type": "uint256"
        }
      ],
      "name": "payForGame",
      "outputs": [],
      "stateMutability": "nonpayable",
      "type": "function"
    },
    {
      "inputs": [
        {
          "internalType": "uint256",
          "name": "",
          "type": "uint256"
        }
      ],
      "name": "transactions",
      "outputs": [
        {
          "internalType": "address",
          "name": "buyer",
          "type": "address"
        },
        {
          "internalType": "uint256",
          "name": "amount",
          "type": "uint256"
        },
        {
          "internalType": "string",
          "name": "gameId",
          "type": "string"
        },
        {
          "internalType": "uint256",
          "name": "timestamp",
          "type": "uint256"
        }
      ],
      "stateMutability": "view",
      "type": "function"
    },
    {
      "inputs": [],
      "name": "usdtToken",
      "outputs": [
        {
          "internalType": "contract IERC20",
          "name": "",
          "type": "address"
        }
      ],
      "stateMutability": "view",
      "type": "function"
    }
  ],
  "bytecode": "0x60806040523480156200001157600080fd5b506040516200111f3803806200111f83398181016040528101906200003791906200016f565b81600160006101000a81548173ffffffffffffffffffffffffffffffffffffffff021916908373ffffffffffffffffffffffffffffffffffffffff160217905550806000806101000a81548173ffffffffffffffffffffffffffffffffffffffff021916908373ffffffffffffffffffffffffffffffffffffffff1602179055505050620001b6565b600080fd5b600073ffffffffffffffffffffffffffffffffffffffff82169050919050565b6000620000f282620000c5565b9050919050565b6200010481620000e5565b81146200011057600080fd5b50565b6000815190506200012481620000f9565b92915050565b60006200013782620000c5565b9050919050565b62000149816200012a565b81146200015557600080fd5b50565b60008151905062000169816200013e565b92915050565b60008060408385031215620001895762000188620000c0565b5b6000620001998582860162000113565b9250506020620001ac8582860162000158565b9150509250929050565b610f5980620001c66000396000f3fe608060405234801561001057600080fd5b50600436106100625760003560e01c8063093bcba4146100675780632e7700f0146100835780632f70f9a2146100a157806333ea3dc8146100bf5780639ace38c2146100f2578063a98ad46c14610125575b600080fd5b610081600480360381019061007c91906107d8565b610143565b005b61008b6103b2565b6040516100989190610843565b60405180910390f35b6100a96103bf565b6040516100b6919061089f565b60405180910390f35b6100d960048036038101906100d491906108ba565b6103e3565b6040516100e99493929190610987565b60405180910390f35b61010c600480360381019061010791906108ba565b61053a565b60405161011c9493929190610987565b60405180910390f35b61012d610622565b60405161013a9190610a32565b60405180910390f35b60008111610186576040517f08c379a000000000000000000000000000000000000000000000000000000000815260040161017d90610a99565b60405180910390fd5b600160009054906101000a900473ffffffffffffffffffffffffffffffffffffffff1673ffffffffffffffffffffffffffffffffffffffff166323b872dd3360008054906101000a900473ffffffffffffffffffffffffffffffffffffffff16846040518463ffffffff1660e01b815260040161020593929190610ada565b6020604051808303816000875af1158015610224573d6000803e3d6000fd5b505050506040513d601f19601f820116820180604052508101906102489190610b49565b610287576040517f08c379a000000000000000000000000000000000000000000000000000000000815260040161027e90610bc2565b60405180910390fd5b600260405180608001604052803373ffffffffffffffffffffffffffffffffffffffff16815260200183815260200184815260200142815250908060018154018082558091505060019003906000526020600020906004020160009091909190915060008201518160000160006101000a81548173ffffffffffffffffffffffffffffffffffffffff021916908373ffffffffffffffffffffffffffffffffffffffff16021790555060208201518160010155604082015181600201908161034f9190610de4565b506060820151816003015550503373ffffffffffffffffffffffffffffffffffffffff167f97096c0ab41ff62dedeca1d5b5694a1c7918c796107586188ab0b1097b2147228284426040516103a693929190610eb6565b60405180910390a25050565b6000600280549050905090565b60008054906101000a900473ffffffffffffffffffffffffffffffffffffffff1681565b6000806060600080600286815481106103ff576103fe610ef4565b5b90600052602060002090600402016040518060800160405290816000820160009054906101000a900473ffffffffffffffffffffffffffffffffffffffff1673ffffffffffffffffffffffffffffffffffffffff1673ffffffffffffffffffffffffffffffffffffffff1681526020016001820154815260200160028201805461048890610c11565b80601f01602080910402602001604051908101604052809291908181526020018280546104b490610c11565b80156105015780601f106104d657610100808354040283529160200191610501565b820191906000526020600020905b8154815290600101906020018083116104e457829003601f168201915b50505050508152602001600382015481525050905080600001518160200151826040015183606001519450945094509450509193509193565b6002818154811061054a57600080fd5b90600052602060002090600402016000915090508060000160009054906101000a900473ffffffffffffffffffffffffffffffffffffffff169080600101549080600201805461059990610c11565b80601f01602080910402602001604051908101604052809291908181526020018280546105c590610c11565b80156106125780601f106105e757610100808354040283529160200191610612565b820191906000526020600020905b8154815290600101906020018083116105f557829003601f168201915b5050505050908060030154905084565b600160009054906101000a900473ffffffffffffffffffffffffffffffffffffffff1681565b6000604051905090565b600080fd5b600080fd5b600080fd5b600080fd5b6000601f19601f8301169050919050565b7f4e487b7100000000000000000000000000000000000000000000000000000000600052604160045260246000fd5b6106af82610666565b810181811067ffffffffffffffff821117156106ce576106cd610677565b5b80604052505050565b60006106e1610648565b90506106ed82826106a6565b919050565b600067ffffffffffffffff82111561070d5761070c610677565b5b61071682610666565b9050602081019050919050565b82818337600083830152505050565b6000610745610740846106f2565b6106d7565b90508281526020810184848401111561076157610760610661565b5b61076c848285610723565b509392505050565b600082601f8301126107895761078861065c565b5b8135610799848260208601610732565b91505092915050565b6000819050919050565b6107b5816107a2565b81146107c057600080fd5b50565b6000813590506107d2816107ac565b92915050565b600080604083850312156107ef576107ee610652565b5b600083013567ffffffffffffffff81111561080d5761080c610657565b5b61081985828601610774565b925050602061082a858286016107c3565b9150509250929050565b61083d816107a2565b82525050565b60006020820190506108586000830184610834565b92915050565b600073ffffffffffffffffffffffffffffffffffffffff82169050919050565b60006108898261085e565b9050919050565b6108998161087e565b82525050565b60006020820190506108b46000830184610890565b92915050565b6000602082840312156108d0576108cf610652565b5b60006108de848285016107c3565b91505092915050565b60006108f28261085e565b9050919050565b610902816108e7565b82525050565b600081519050919050565b600082825260208201905092915050565b60005b83811015610942578082015181840152602081019050610927565b60008484015250505050565b600061095982610908565b6109638185610913565b9350610973818560208601610924565b61097c81610666565b840191505092915050565b600060808201905061099c60008301876108f9565b6109a96020830186610834565b81810360408301526109bb818561094e565b90506109ca6060830184610834565b95945050505050565b6000819050919050565b60006109f86109f36109ee8461085e565b6109d3565b61085e565b9050919050565b6000610a0a826109dd565b9050919050565b6000610a1c826109ff565b9050919050565b610a2c81610a11565b82525050565b6000602082019050610a476000830184610a23565b92915050565b7f416d6f756e74206d7573742062652067726561746572207468616e207a65726f600082015250565b6000610a83602083610913565b9150610a8e82610a4d565b602082019050919050565b60006020820190508181036000830152610ab281610a76565b9050919050565b6000610ac4826109ff565b9050919050565b610ad481610ab9565b82525050565b6000606082019050610aef60008301866108f9565b610afc6020830185610acb565b610b096040830184610834565b949350505050565b60008115159050919050565b610b2681610b11565b8114610b3157600080fd5b50565b600081519050610b4381610b1d565b92915050565b600060208284031215610b5f57610b5e610652565b5b6000610b6d84828501610b34565b91505092915050565b7f5472616e73666572206661696c65640000000000000000000000000000000000600082015250565b6000610bac600f83610913565b9150610bb782610b76565b602082019050919050565b60006020820190508181036000830152610bdb81610b9f565b9050919050565b7f4e487b7100000000000000000000000000000000000000000000000000000000600052602260045260246000fd5b60006002820490506001821680610c2957607f821691505b602082108103610c3c57610c3b610be2565b5b50919050565b60008190508160005260206000209050919050565b60006020601f8301049050919050565b600082821b905092915050565b600060088302610ca47fffffffffffffffffffffffffffffffffffffffffffffffffffffffffffffffff82610c67565b610cae8683610c67565b95508019841693508086168417925050509392505050565b6000610ce1610cdc610cd7846107a2565b6109d3565b6107a2565b9050919050565b6000819050919050565b610cfb83610cc6565b610d0f610d0782610ce8565b848454610c74565b825550505050565b600090565b610d24610d17565b610d2f818484610cf2565b505050565b5b81811015610d5357610d48600082610d1c565b600181019050610d35565b5050565b601f821115610d9857610d6981610c42565b610d7284610c57565b81016020851015610d81578190505b610d95610d8d85610c57565b830182610d34565b50505b505050565b600082821c905092915050565b6000610dbb60001984600802610d9d565b1980831691505092915050565b6000610dd48383610daa565b9150826002028217905092915050565b610ded82610908565b67ffffffffffffffff811115610e0657610e05610677565b5b610e108254610c11565b610e1b828285610d57565b600060209050601f831160018114610e4e5760008415610e3c578287015190505b610e468582610dc8565b865550610eae565b601f198416610e5c86610c42565b60005b82811015610e8457848901518255600182019150602085019450602081019050610e5f565b86831015610ea15784890151610e9d601f891682610daa565b8355505b6001600288020188555050505b505050505050565b6000606082019050610ecb6000830186610834565b8181036020830152610edd818561094e565b9050610eec6040830184610834565b949350505050565b7f4e487b7100000000000000000000000000000000000000000000000000000000600052603260045260246000fdfea264697066735822122010ddd98dce25d61fb3e324346b6ccd61be8827d882643a05f521e247cfe90b1b64736f6c63430008180033",
  "linkReferences": {},
  "deployedLinkReferences": {}
}